{
  "contractName": "Donation",
  "abi": [
    {
      "inputs": [],
      "stateMutability": "nonpayable",
      "type": "constructor"
    },
    {
      "inputs": [
        {
          "internalType": "uint256",
          "name": "",
          "type": "uint256"
        }
      ],
      "name": "donors",
      "outputs": [
        {
          "internalType": "address",
          "name": "",
          "type": "address"
        }
      ],
      "stateMutability": "view",
      "type": "function",
      "constant": true
    },
    {
      "inputs": [],
      "name": "owner",
      "outputs": [
        {
          "internalType": "address",
          "name": "",
          "type": "address"
        }
      ],
      "stateMutability": "view",
      "type": "function",
      "constant": true
    },
    {
      "inputs": [],
      "name": "totalDonations",
      "outputs": [
        {
          "internalType": "uint256",
          "name": "",
          "type": "uint256"
        }
      ],
      "stateMutability": "view",
      "type": "function",
      "constant": true
    },
    {
      "inputs": [],
      "name": "donate",
      "outputs": [],
      "stateMutability": "payable",
      "type": "function",
      "payable": true
    },
    {
      "inputs": [],
      "name": "withdraw",
      "outputs": [],
      "stateMutability": "nonpayable",
      "type": "function"
    },
    {
      "inputs": [
        {
          "internalType": "address",
          "name": "recipient",
          "type": "address"
        },
        {
          "internalType": "uint256",
          "name": "amount",
          "type": "uint256"
        }
      ],
      "name": "withdrawTo",
      "outputs": [],
      "stateMutability": "nonpayable",
      "type": "function"
    },
    {
      "inputs": [],
      "name": "getBalance",
      "outputs": [
        {
          "internalType": "uint256",
          "name": "",
          "type": "uint256"
        }
      ],
      "stateMutability": "view",
      "type": "function",
      "constant": true
    },
    {
      "inputs": [],
      "name": "getDonors",
      "outputs": [
        {
          "internalType": "address[]",
          "name": "",
          "type": "address[]"
        }
      ],
      "stateMutability": "view",
      "type": "function",
      "constant": true
    },
    {
      "inputs": [],
      "name": "clearDonors",
      "outputs": [],
      "stateMutability": "nonpayable",
      "type": "function"
    }
  ],
  "bytecode": "0x608060405234801561001057600080fd5b50336000806101000a81548173ffffffffffffffffffffffffffffffffffffffff021916908373ffffffffffffffffffffffffffffffffffffffff160217905550610b77806100606000396000f3fe6080604052600436106100865760003560e01c80638da5cb5b116100595780638da5cb5b1461013357806396f300d41461015e578063a30af82a14610189578063de2ed893146101a0578063ed88c68e146101cb57610086565b806312065fe01461008b578063205c2878146100b65780633ccfd60b146100df5780634abfa163146100f6575b600080fd5b34801561009757600080fd5b506100a06101d5565b6040516100ad91906109ed565b60405180910390f35b3480156100c257600080fd5b506100dd60048036038101906100d89190610702565b6101dd565b005b3480156100eb57600080fd5b506100f46102f9565b005b34801561010257600080fd5b5061011d6004803603810190610118919061073e565b6103f0565b60405161012a9190610930565b60405180910390f35b34801561013f57600080fd5b5061014861042f565b6040516101559190610930565b60405180910390f35b34801561016a57600080fd5b50610173610453565b604051610180919061094b565b60405180910390f35b34801561019557600080fd5b5061019e6104e1565b005b3480156101ac57600080fd5b506101b561057f565b6040516101c291906109ed565b60405180910390f35b6101d3610585565b005b600047905090565b60008054906101000a900473ffffffffffffffffffffffffffffffffffffffff1673ffffffffffffffffffffffffffffffffffffffff163373ffffffffffffffffffffffffffffffffffffffff161461026b576040517f08c379a0000000000000000000000000000000000000000000000000000000008152600401610262906109ad565b60405180910390fd5b478111156102ae576040517f08c379a00000000000000000000000000000000000000000000000000000000081526004016102a59061098d565b60405180910390fd5b8173ffffffffffffffffffffffffffffffffffffffff166108fc829081150290604051600060405180830381858888f193505050501580156102f4573d6000803e3d6000fd5b505050565b60008054906101000a900473ffffffffffffffffffffffffffffffffffffffff1673ffffffffffffffffffffffffffffffffffffffff163373ffffffffffffffffffffffffffffffffffffffff1614610387576040517f08c379a000000000000000000000000000000000000000000000000000000000815260040161037e906109ad565b60405180910390fd5b60008054906101000a900473ffffffffffffffffffffffffffffffffffffffff1673ffffffffffffffffffffffffffffffffffffffff166108fc479081150290604051600060405180830381858888f193505050501580156103ed573d6000803e3d6000fd5b50565b6002818154811061040057600080fd5b906000526020600020016000915054906101000a900473ffffffffffffffffffffffffffffffffffffffff1681565b60008054906101000a900473ffffffffffffffffffffffffffffffffffffffff1681565b606060028054806020026020016040519081016040528092919081815260200182805480156104d757602002820191906000526020600020905b8160009054906101000a900473ffffffffffffffffffffffffffffffffffffffff1673ffffffffffffffffffffffffffffffffffffffff168152602001906001019080831161048d575b5050505050905090565b60008054906101000a900473ffffffffffffffffffffffffffffffffffffffff1673ffffffffffffffffffffffffffffffffffffffff163373ffffffffffffffffffffffffffffffffffffffff161461056f576040517f08c379a0000000000000000000000000000000000000000000000000000000008152600401610566906109cd565b60405180910390fd5b6002600061057d919061069a565b565b60015481565b600034116105c8576040517f08c379a00000000000000000000000000000000000000000000000000000000081526004016105bf9061096d565b60405180910390fd5b60008054906101000a900473ffffffffffffffffffffffffffffffffffffffff1673ffffffffffffffffffffffffffffffffffffffff163373ffffffffffffffffffffffffffffffffffffffff161461067f576002339080600181540180825580915050600190039060005260206000200160009091909190916101000a81548173ffffffffffffffffffffffffffffffffffffffff021916908373ffffffffffffffffffffffffffffffffffffffff1602179055505b34600160008282546106919190610a52565b92505081905550565b50805460008255906000526020600020908101906106b891906106bb565b50565b5b808211156106d45760008160009055506001016106bc565b5090565b6000813590506106e781610b13565b92915050565b6000813590506106fc81610b2a565b92915050565b6000806040838503121561071557600080fd5b6000610723858286016106d8565b9250506020610734858286016106ed565b9150509250929050565b60006020828403121561075057600080fd5b600061075e848285016106ed565b91505092915050565b6000610773838361077f565b60208301905092915050565b61078881610aa8565b82525050565b61079781610aa8565b82525050565b60006107a882610a18565b6107b28185610a30565b93506107bd83610a08565b8060005b838110156107ee5781516107d58882610767565b97506107e083610a23565b9250506001810190506107c1565b5085935050505092915050565b6000610808602683610a41565b91507f446f6e6174696f6e20616d6f756e74206d75737420626520677265617465722060008301527f7468616e203000000000000000000000000000000000000000000000000000006020830152604082019050919050565b600061086e601483610a41565b91507f496e73756666696369656e742062616c616e63650000000000000000000000006000830152602082019050919050565b60006108ae601783610a41565b91507f4f6e6c79206f776e65722063616e2077697468647261770000000000000000006000830152602082019050919050565b60006108ee601b83610a41565b91507f4f6e6c79206f776e65722063616e20636c65617220646f6e6f727300000000006000830152602082019050919050565b61092a81610ada565b82525050565b6000602082019050610945600083018461078e565b92915050565b60006020820190508181036000830152610965818461079d565b905092915050565b60006020820190508181036000830152610986816107fb565b9050919050565b600060208201905081810360008301526109a681610861565b9050919050565b600060208201905081810360008301526109c6816108a1565b9050919050565b600060208201905081810360008301526109e6816108e1565b9050919050565b6000602082019050610a026000830184610921565b92915050565b6000819050602082019050919050565b600081519050919050565b6000602082019050919050565b600082825260208201905092915050565b600082825260208201905092915050565b6000610a5d82610ada565b9150610a6883610ada565b9250827fffffffffffffffffffffffffffffffffffffffffffffffffffffffffffffffff03821115610a9d57610a9c610ae4565b5b828201905092915050565b6000610ab382610aba565b9050919050565b600073ffffffffffffffffffffffffffffffffffffffff82169050919050565b6000819050919050565b7f4e487b7100000000000000000000000000000000000000000000000000000000600052601160045260246000fd5b610b1c81610aa8565b8114610b2757600080fd5b50565b610b3381610ada565b8114610b3e57600080fd5b5056fea26469706673582212204b7067ed5d266a82e1ad2aa2caf58491e4726ed7ed48b09080bb48b75f8ff72e64736f6c63430008000033",
  "immutableReferences": {},
  "source": "// SPDX-License-Identifier: MIT\r\npragma solidity ^0.8.0;\r\n\r\ncontract Donation {\r\n    address public owner;\r\n    uint256 public totalDonations;\r\n    address[] public donors;\r\n\r\n    constructor() {\r\n        owner = msg.sender;\r\n    }\r\n\r\n    function donate() public payable {\r\n        require(msg.value > 0, \"Donation amount must be greater than 0\");\r\n\r\n        if (msg.sender != owner) {\r\n            donors.push(msg.sender);\r\n        }\r\n\r\n        totalDonations += msg.value;\r\n    }\r\n\r\n    function withdraw() public {\r\n        require(msg.sender == owner, \"Only owner can withdraw\");\r\n        payable(owner).transfer(address(this).balance);\r\n    }\r\n\r\n    function withdrawTo(address recipient, uint256 amount) public {\r\n        require(msg.sender == owner, \"Only owner can withdraw\");\r\n        require(amount <= address(this).balance, \"Insufficient balance\");\r\n        \r\n        payable(recipient).transfer(amount);\r\n    }\r\n\r\n    function getBalance() public view returns (uint256) {\r\n        return address(this).balance;\r\n    }\r\n\r\n    function getDonors() public view returns (address[] memory) {\r\n        return donors;\r\n    }\r\n\r\n    function clearDonors() public {\r\n        require(msg.sender == owner, \"Only owner can clear donors\");\r\n        delete donors;\r\n    }\r\n}\r\n",
  "sourcePath": "C:\\Users\\ПК\\source\\Team_Project\\team_project_tatsym\\client\\contracts\\Donation.sol",
  "compiler": {
    "name": "solc",
    "version": "0.8.0+commit.c7dfd78e.Emscripten.clang"
  },
  "schemaVersion": "3.4.16",
  "updatedAt": "2025-02-26T11:43:54.897Z",
  "networkType": "ethereum",
  "devdoc": {
    "kind": "dev",
    "methods": {},
    "version": 1
  },
  "userdoc": {
    "kind": "user",
    "methods": {},
    "version": 1
  }
}