{
  "contractName": "Donation",
  "abi": [
    {
      "inputs": [],
      "stateMutability": "nonpayable",
      "type": "constructor"
    },
    {
      "inputs": [
        {
          "internalType": "uint256",
          "name": "",
          "type": "uint256"
        }
      ],
      "name": "donors",
      "outputs": [
        {
          "internalType": "address",
          "name": "",
          "type": "address"
        }
      ],
      "stateMutability": "view",
      "type": "function",
      "constant": true
    },
    {
      "inputs": [],
      "name": "owner",
      "outputs": [
        {
          "internalType": "address",
          "name": "",
          "type": "address"
        }
      ],
      "stateMutability": "view",
      "type": "function",
      "constant": true
    },
    {
      "inputs": [],
      "name": "totalDonations",
      "outputs": [
        {
          "internalType": "uint256",
          "name": "",
          "type": "uint256"
        }
      ],
      "stateMutability": "view",
      "type": "function",
      "constant": true
    },
    {
      "inputs": [],
      "name": "donate",
      "outputs": [],
      "stateMutability": "payable",
      "type": "function",
      "payable": true
    },
    {
      "inputs": [],
      "name": "withdraw",
      "outputs": [],
      "stateMutability": "nonpayable",
      "type": "function"
    },
    {
      "inputs": [
        {
          "internalType": "address",
          "name": "winner",
          "type": "address"
        }
      ],
      "name": "withdrawToWinner",
      "outputs": [],
      "stateMutability": "nonpayable",
      "type": "function"
    },
    {
      "inputs": [],
      "name": "getBalance",
      "outputs": [
        {
          "internalType": "uint256",
          "name": "",
          "type": "uint256"
        }
      ],
      "stateMutability": "view",
      "type": "function",
      "constant": true
    },
    {
      "inputs": [],
      "name": "getDonors",
      "outputs": [
        {
          "internalType": "address[]",
          "name": "",
          "type": "address[]"
        }
      ],
      "stateMutability": "view",
      "type": "function",
      "constant": true
    },
    {
      "inputs": [],
      "name": "clearDonors",
      "outputs": [],
      "stateMutability": "nonpayable",
      "type": "function"
    }
  ],
  "bytecode": "0x608060405234801561001057600080fd5b50336000806101000a81548173ffffffffffffffffffffffffffffffffffffffff021916908373ffffffffffffffffffffffffffffffffffffffff160217905550610b97806100606000396000f3fe6080604052600436106100865760003560e01c806396f300d41161005957806396f300d4146101355780639e3149e814610160578063a30af82a14610189578063de2ed893146101a0578063ed88c68e146101cb57610086565b806312065fe01461008b5780633ccfd60b146100b65780634abfa163146100cd5780638da5cb5b1461010a575b600080fd5b34801561009757600080fd5b506100a06101d5565b6040516100ad9190610a0d565b60405180910390f35b3480156100c257600080fd5b506100cb6101dd565b005b3480156100d957600080fd5b506100f460048036038101906100ef9190610738565b6102d4565b6040516101019190610950565b60405180910390f35b34801561011657600080fd5b5061011f610313565b60405161012c9190610950565b60405180910390f35b34801561014157600080fd5b5061014a610337565b604051610157919061096b565b60405180910390f35b34801561016c57600080fd5b506101876004803603810190610182919061070f565b6103c5565b005b34801561019557600080fd5b5061019e6104ee565b005b3480156101ac57600080fd5b506101b561058c565b6040516101c29190610a0d565b60405180910390f35b6101d3610592565b005b600047905090565b60008054906101000a900473ffffffffffffffffffffffffffffffffffffffff1673ffffffffffffffffffffffffffffffffffffffff163373ffffffffffffffffffffffffffffffffffffffff161461026b576040517f08c379a0000000000000000000000000000000000000000000000000000000008152600401610262906109ad565b60405180910390fd5b60008054906101000a900473ffffffffffffffffffffffffffffffffffffffff1673ffffffffffffffffffffffffffffffffffffffff166108fc479081150290604051600060405180830381858888f193505050501580156102d1573d6000803e3d6000fd5b50565b600281815481106102e457600080fd5b906000526020600020016000915054906101000a900473ffffffffffffffffffffffffffffffffffffffff1681565b60008054906101000a900473ffffffffffffffffffffffffffffffffffffffff1681565b606060028054806020026020016040519081016040528092919081815260200182805480156103bb57602002820191906000526020600020905b8160009054906101000a900473ffffffffffffffffffffffffffffffffffffffff1673ffffffffffffffffffffffffffffffffffffffff1681526020019060010190808311610371575b5050505050905090565b60008054906101000a900473ffffffffffffffffffffffffffffffffffffffff1673ffffffffffffffffffffffffffffffffffffffff163373ffffffffffffffffffffffffffffffffffffffff1614610453576040517f08c379a000000000000000000000000000000000000000000000000000000000815260040161044a906109ad565b60405180910390fd5b66470de4df82000047101561049d576040517f08c379a0000000000000000000000000000000000000000000000000000000008152600401610494906109ed565b60405180910390fd5b8073ffffffffffffffffffffffffffffffffffffffff166108fc66470de4df8200009081150290604051600060405180830381858888f193505050501580156104ea573d6000803e3d6000fd5b5050565b60008054906101000a900473ffffffffffffffffffffffffffffffffffffffff1673ffffffffffffffffffffffffffffffffffffffff163373ffffffffffffffffffffffffffffffffffffffff161461057c576040517f08c379a0000000000000000000000000000000000000000000000000000000008152600401610573906109cd565b60405180910390fd5b6002600061058a91906106a7565b565b60015481565b600034116105d5576040517f08c379a00000000000000000000000000000000000000000000000000000000081526004016105cc9061098d565b60405180910390fd5b60008054906101000a900473ffffffffffffffffffffffffffffffffffffffff1673ffffffffffffffffffffffffffffffffffffffff163373ffffffffffffffffffffffffffffffffffffffff161461068c576002339080600181540180825580915050600190039060005260206000200160009091909190916101000a81548173ffffffffffffffffffffffffffffffffffffffff021916908373ffffffffffffffffffffffffffffffffffffffff1602179055505b346001600082825461069e9190610a72565b92505081905550565b50805460008255906000526020600020908101906106c591906106c8565b50565b5b808211156106e15760008160009055506001016106c9565b5090565b6000813590506106f481610b33565b92915050565b60008135905061070981610b4a565b92915050565b60006020828403121561072157600080fd5b600061072f848285016106e5565b91505092915050565b60006020828403121561074a57600080fd5b6000610758848285016106fa565b91505092915050565b600061076d8383610779565b60208301905092915050565b61078281610ac8565b82525050565b61079181610ac8565b82525050565b60006107a282610a38565b6107ac8185610a50565b93506107b783610a28565b8060005b838110156107e85781516107cf8882610761565b97506107da83610a43565b9250506001810190506107bb565b5085935050505092915050565b6000610802602683610a61565b91507f446f6e6174696f6e20616d6f756e74206d75737420626520677265617465722060008301527f7468616e203000000000000000000000000000000000000000000000000000006020830152604082019050919050565b6000610868601783610a61565b91507f4f6e6c79206f776e65722063616e2077697468647261770000000000000000006000830152602082019050919050565b60006108a8601b83610a61565b91507f4f6e6c79206f776e65722063616e20636c65617220646f6e6f727300000000006000830152602082019050919050565b60006108e8602583610a61565b91507f496e73756666696369656e742062616c616e636520746f207374617274206c6f60008301527f74746572790000000000000000000000000000000000000000000000000000006020830152604082019050919050565b61094a81610afa565b82525050565b60006020820190506109656000830184610788565b92915050565b600060208201905081810360008301526109858184610797565b905092915050565b600060208201905081810360008301526109a6816107f5565b9050919050565b600060208201905081810360008301526109c68161085b565b9050919050565b600060208201905081810360008301526109e68161089b565b9050919050565b60006020820190508181036000830152610a06816108db565b9050919050565b6000602082019050610a226000830184610941565b92915050565b6000819050602082019050919050565b600081519050919050565b6000602082019050919050565b600082825260208201905092915050565b600082825260208201905092915050565b6000610a7d82610afa565b9150610a8883610afa565b9250827fffffffffffffffffffffffffffffffffffffffffffffffffffffffffffffffff03821115610abd57610abc610b04565b5b828201905092915050565b6000610ad382610ada565b9050919050565b600073ffffffffffffffffffffffffffffffffffffffff82169050919050565b6000819050919050565b7f4e487b7100000000000000000000000000000000000000000000000000000000600052601160045260246000fd5b610b3c81610ac8565b8114610b4757600080fd5b50565b610b5381610afa565b8114610b5e57600080fd5b5056fea264697066735822122058d30ab853061576b75f68cc1032b7c2096d6c863bb8e61da79960bc29eda40f64736f6c63430008000033",
  "immutableReferences": {},
  "source": "// SPDX-License-Identifier: MIT\r\npragma solidity ^0.8.0;\r\n\r\ncontract Donation {\r\n    address public owner;\r\n    uint256 public totalDonations;\r\n    address[] public donors;\r\n\r\n    constructor() {\r\n        owner = msg.sender;\r\n    }\r\n\r\n    function donate() public payable {\r\n        require(msg.value > 0, \"Donation amount must be greater than 0\");\r\n\r\n        if (msg.sender != owner) {\r\n            donors.push(msg.sender);\r\n        }\r\n\r\n        totalDonations += msg.value;\r\n    }\r\n\r\n    function withdraw() public {\r\n        require(msg.sender == owner, \"Only owner can withdraw\");\r\n        payable(owner).transfer(address(this).balance);\r\n    }\r\n\r\n    function withdrawToWinner(address winner) public {\r\n        require(msg.sender == owner, \"Only owner can withdraw\");\r\n        require(address(this).balance >= 0.02 ether, \"Insufficient balance to start lottery\");\r\n\r\n        payable(winner).transfer(0.02 ether);\r\n    }\r\n\r\n    function getBalance() public view returns (uint256) {\r\n        return address(this).balance;\r\n    }\r\n\r\n    function getDonors() public view returns (address[] memory) {\r\n        return donors;\r\n    }\r\n\r\n    function clearDonors() public {\r\n        require(msg.sender == owner, \"Only owner can clear donors\");\r\n        delete donors;\r\n    }\r\n}\r\n",
  "sourcePath": "C:\\Users\\ПК\\source\\Team_Project\\team_project_tatsym\\client\\contracts\\Donation.sol",
  "compiler": {
    "name": "solc",
    "version": "0.8.0+commit.c7dfd78e.Emscripten.clang"
  },
  "schemaVersion": "3.4.16",
  "updatedAt": "2025-02-28T11:46:42.218Z",
  "networkType": "ethereum",
  "devdoc": {
    "kind": "dev",
    "methods": {},
    "version": 1
  },
  "userdoc": {
    "kind": "user",
    "methods": {},
    "version": 1
  }
}